:03000000020006F5
:03005F0002000399
:03000300020142B5
:20006200AD82AE83AFF08D828E838FF0120256FC60098CFD0DBD00EE0E80EB22E5FC70FCE8
:200082002275FA0075FB0175FA0175FB002275FA0075FB0075FA0175FB0122AF8275FA00D8
:2000A200530701E4BF000104FFB40100E433F5FB75FA0122AF827D007E0075FA007407C315
:2000C2009DFBE49EFC8BF005F0EF8002C313D5F0FB5401FCE4BC000104FCB40100E433F5DE
:2000E200FB75FA010DBD00010EC374079D74808EF063F08095F050C2227F007D007E0075F2
:20010200FA0075FA01EF2FFC740155FBFBE4BB000104FBB40100E433FB4CFF0DBD00010E0F
:20012200C374079D74808EF063F08095F050D08F822275FA007401F5FA55FB6401F58222A4
:2001420090027E75F08012006212007E90028B75F08012006212008390029275F08012007E
:200162006290027AE493FE7401938E821200B6120134E582700C9002A375F0801200620200
:2001820002529002AD75F0801200627582001200B6120134E582700C9002B575F08012004A
:2001A200620202529002BF75F0801200621200839002C875F08012006290027CE493FE749C
:2001C200019343060F8E821200B6120134E582700B9002D375F08012006280749002DD759A
:2001E200F0801200621200839002E875F080120062900278E493FE7401938E821200B61240
:200202000134E582700B9002F175F080120062803F7E007F00C007C0061200FBAD82C0059F
:20022200120134E582D005D006D007700B9002FB75F08012006280188DFD0EBE00010FC36A
:14024200EF6480948140CE90030875F08012006275FF012227
:20027600A000A100A000500048656C6C6F20576F726C640A0073746172740A006F70206C6E
:200296006F61645F616464726573730A006661696C656420300A006164647220300A0066AB
:2002B60061696C656420310A00726573746172740A006F70207365637572650A00666169FF
:2002D6006C656420320A007265737461727420320A006F7020726561640A006661696C6570
:1402F6006420330A006661696C656420726561640A000A00FE
:06003500E478FFF6D8FD9F
:200013007900E94400601B7A0090030A780175A000E493F2A308B8000205A0D9F4DAF27586
:02003300A0FF2C
:20003B007800E84400600A790175A000E4F309D8FC7800E84400600C7900900001E4F0A3C3
:04005B00D8FCD9FAFA
:0D000600758107120272E58260030200039B
:1C02560020F71430F6148883A88220F507E6A88375830022E280F7E49322E022B7
:04027200758200226F
:00000001FF
